{
  "contractName": "SpaceToken",
  "abi": [
    {
      "inputs": [],
      "stateMutability": "nonpayable",
      "type": "constructor"
    },
    {
      "anonymous": false,
      "inputs": [
        {
          "indexed": true,
          "internalType": "address",
          "name": "owner",
          "type": "address"
        },
        {
          "indexed": true,
          "internalType": "address",
          "name": "approved",
          "type": "address"
        },
        {
          "indexed": true,
          "internalType": "uint256",
          "name": "tokenId",
          "type": "uint256"
        }
      ],
      "name": "Approval",
      "type": "event"
    },
    {
      "anonymous": false,
      "inputs": [
        {
          "indexed": true,
          "internalType": "address",
          "name": "owner",
          "type": "address"
        },
        {
          "indexed": true,
          "internalType": "address",
          "name": "operator",
          "type": "address"
        },
        {
          "indexed": false,
          "internalType": "bool",
          "name": "approved",
          "type": "bool"
        }
      ],
      "name": "ApprovalForAll",
      "type": "event"
    },
    {
      "anonymous": false,
      "inputs": [
        {
          "indexed": true,
          "internalType": "address",
          "name": "from",
          "type": "address"
        },
        {
          "indexed": true,
          "internalType": "address",
          "name": "to",
          "type": "address"
        },
        {
          "indexed": true,
          "internalType": "uint256",
          "name": "tokenId",
          "type": "uint256"
        }
      ],
      "name": "Transfer",
      "type": "event"
    },
    {
      "anonymous": false,
      "inputs": [
        {
          "indexed": false,
          "internalType": "address",
          "name": "owner",
          "type": "address"
        },
        {
          "indexed": false,
          "internalType": "address",
          "name": "to",
          "type": "address"
        },
        {
          "indexed": false,
          "internalType": "uint256",
          "name": "amount",
          "type": "uint256"
        }
      ],
      "name": "WithdrawAction",
      "type": "event"
    },
    {
      "inputs": [
        {
          "internalType": "uint256",
          "name": "",
          "type": "uint256"
        }
      ],
      "name": "_tokenDetails",
      "outputs": [
        {
          "internalType": "string",
          "name": "url",
          "type": "string"
        },
        {
          "internalType": "string",
          "name": "description",
          "type": "string"
        },
        {
          "internalType": "string",
          "name": "iconHash",
          "type": "string"
        },
        {
          "internalType": "string",
          "name": "screenshotHash",
          "type": "string"
        },
        {
          "internalType": "uint256",
          "name": "lastWithdrawDate",
          "type": "uint256"
        }
      ],
      "stateMutability": "view",
      "type": "function",
      "constant": true
    },
    {
      "inputs": [
        {
          "internalType": "address",
          "name": "",
          "type": "address"
        },
        {
          "internalType": "uint256",
          "name": "",
          "type": "uint256"
        }
      ],
      "name": "_userTokenIds",
      "outputs": [
        {
          "internalType": "uint256",
          "name": "",
          "type": "uint256"
        }
      ],
      "stateMutability": "view",
      "type": "function",
      "constant": true
    },
    {
      "inputs": [
        {
          "internalType": "address",
          "name": "to",
          "type": "address"
        },
        {
          "internalType": "uint256",
          "name": "tokenId",
          "type": "uint256"
        }
      ],
      "name": "approve",
      "outputs": [],
      "stateMutability": "nonpayable",
      "type": "function"
    },
    {
      "inputs": [
        {
          "internalType": "address",
          "name": "owner",
          "type": "address"
        }
      ],
      "name": "balanceOf",
      "outputs": [
        {
          "internalType": "uint256",
          "name": "",
          "type": "uint256"
        }
      ],
      "stateMutability": "view",
      "type": "function",
      "constant": true
    },
    {
      "inputs": [
        {
          "internalType": "uint256",
          "name": "tokenId",
          "type": "uint256"
        }
      ],
      "name": "getApproved",
      "outputs": [
        {
          "internalType": "address",
          "name": "",
          "type": "address"
        }
      ],
      "stateMutability": "view",
      "type": "function",
      "constant": true
    },
    {
      "inputs": [
        {
          "internalType": "address",
          "name": "owner",
          "type": "address"
        },
        {
          "internalType": "address",
          "name": "operator",
          "type": "address"
        }
      ],
      "name": "isApprovedForAll",
      "outputs": [
        {
          "internalType": "bool",
          "name": "",
          "type": "bool"
        }
      ],
      "stateMutability": "view",
      "type": "function",
      "constant": true
    },
    {
      "inputs": [],
      "name": "name",
      "outputs": [
        {
          "internalType": "string",
          "name": "",
          "type": "string"
        }
      ],
      "stateMutability": "view",
      "type": "function",
      "constant": true
    },
    {
      "inputs": [
        {
          "internalType": "uint256",
          "name": "tokenId",
          "type": "uint256"
        }
      ],
      "name": "ownerOf",
      "outputs": [
        {
          "internalType": "address",
          "name": "",
          "type": "address"
        }
      ],
      "stateMutability": "view",
      "type": "function",
      "constant": true
    },
    {
      "inputs": [
        {
          "internalType": "address",
          "name": "from",
          "type": "address"
        },
        {
          "internalType": "address",
          "name": "to",
          "type": "address"
        },
        {
          "internalType": "uint256",
          "name": "tokenId",
          "type": "uint256"
        }
      ],
      "name": "safeTransferFrom",
      "outputs": [],
      "stateMutability": "nonpayable",
      "type": "function"
    },
    {
      "inputs": [
        {
          "internalType": "address",
          "name": "from",
          "type": "address"
        },
        {
          "internalType": "address",
          "name": "to",
          "type": "address"
        },
        {
          "internalType": "uint256",
          "name": "tokenId",
          "type": "uint256"
        },
        {
          "internalType": "bytes",
          "name": "_data",
          "type": "bytes"
        }
      ],
      "name": "safeTransferFrom",
      "outputs": [],
      "stateMutability": "nonpayable",
      "type": "function"
    },
    {
      "inputs": [
        {
          "internalType": "address",
          "name": "operator",
          "type": "address"
        },
        {
          "internalType": "bool",
          "name": "approved",
          "type": "bool"
        }
      ],
      "name": "setApprovalForAll",
      "outputs": [],
      "stateMutability": "nonpayable",
      "type": "function"
    },
    {
      "inputs": [
        {
          "internalType": "bytes4",
          "name": "interfaceId",
          "type": "bytes4"
        }
      ],
      "name": "supportsInterface",
      "outputs": [
        {
          "internalType": "bool",
          "name": "",
          "type": "bool"
        }
      ],
      "stateMutability": "view",
      "type": "function",
      "constant": true
    },
    {
      "inputs": [],
      "name": "symbol",
      "outputs": [
        {
          "internalType": "string",
          "name": "",
          "type": "string"
        }
      ],
      "stateMutability": "view",
      "type": "function",
      "constant": true
    },
    {
      "inputs": [
        {
          "internalType": "uint256",
          "name": "tokenId",
          "type": "uint256"
        }
      ],
      "name": "tokenURI",
      "outputs": [
        {
          "internalType": "string",
          "name": "",
          "type": "string"
        }
      ],
      "stateMutability": "view",
      "type": "function",
      "constant": true
    },
    {
      "inputs": [
        {
          "internalType": "address",
          "name": "from",
          "type": "address"
        },
        {
          "internalType": "address",
          "name": "to",
          "type": "address"
        },
        {
          "internalType": "uint256",
          "name": "tokenId",
          "type": "uint256"
        }
      ],
      "name": "transferFrom",
      "outputs": [],
      "stateMutability": "nonpayable",
      "type": "function"
    },
    {
      "inputs": [
        {
          "internalType": "address",
          "name": "owner",
          "type": "address"
        },
        {
          "components": [
            {
              "internalType": "string",
              "name": "url",
              "type": "string"
            },
            {
              "internalType": "string",
              "name": "description",
              "type": "string"
            },
            {
              "internalType": "string",
              "name": "iconHash",
              "type": "string"
            },
            {
              "internalType": "string",
              "name": "screenshotHash",
              "type": "string"
            },
            {
              "internalType": "uint256",
              "name": "lastWithdrawDate",
              "type": "uint256"
            }
          ],
          "internalType": "struct SpaceToken.TokenDetails",
          "name": "tokenDetails",
          "type": "tuple"
        }
      ],
      "name": "mintToken",
      "outputs": [
        {
          "internalType": "uint256",
          "name": "",
          "type": "uint256"
        }
      ],
      "stateMutability": "nonpayable",
      "type": "function"
    },
    {
      "inputs": [
        {
          "internalType": "address",
          "name": "owner",
          "type": "address"
        }
      ],
      "name": "getTokenDetails",
      "outputs": [
        {
          "components": [
            {
              "internalType": "string",
              "name": "url",
              "type": "string"
            },
            {
              "internalType": "string",
              "name": "description",
              "type": "string"
            },
            {
              "internalType": "string",
              "name": "iconHash",
              "type": "string"
            },
            {
              "internalType": "string",
              "name": "screenshotHash",
              "type": "string"
            },
            {
              "internalType": "uint256",
              "name": "lastWithdrawDate",
              "type": "uint256"
            }
          ],
          "internalType": "struct SpaceToken.TokenDetails[]",
          "name": "tokenDetails",
          "type": "tuple[]"
        }
      ],
      "stateMutability": "view",
      "type": "function",
      "constant": true
    },
    {
      "inputs": [
        {
          "internalType": "address payable",
          "name": "to",
          "type": "address"
        },
        {
          "internalType": "uint256",
          "name": "amount",
          "type": "uint256"
        },
        {
          "internalType": "uint256",
          "name": "tokenId",
          "type": "uint256"
        }
      ],
      "name": "withdrawEarnedTokens",
      "outputs": [],
      "stateMutability": "payable",
      "type": "function",
      "payable": true
    }
  ],
  "bytecode": "0x60806040523480156200001157600080fd5b506040518060400160405280600a81526020017f5370616365546f6b656e000000000000000000000000000000000000000000008152506040518060400160405280600481526020017f5350544b00000000000000000000000000000000000000000000000000000000815250816000908051906020019062000096929190620000b8565b508060019080519060200190620000af929190620000b8565b505050620001cc565b828054620000c69062000197565b90600052602060002090601f016020900481019282620000ea576000855562000136565b82601f106200010557805160ff191683800117855562000136565b8280016001018555821562000136579182015b828111156200013557825182559160200191906001019062000118565b5b50905062000145919062000149565b5090565b5b80821115620001645760008160009055506001016200014a565b5090565b7f4e487b7100000000000000000000000000000000000000000000000000000000600052602260045260246000fd5b60006002820490506001821680620001b057607f821691505b602082108103620001c657620001c562000168565b5b50919050565b613b4780620001dc6000396000f3fe6080604052600436106101095760003560e01c806385f7229a11610095578063a22cb46511610064578063a22cb465146103aa578063b88d4fde146103d3578063bbd38fbe146103fc578063c87b56dd14610439578063e985e9c51461047657610109565b806385f7229a146102c457806388aa8bee146103055780638fe339291461034257806395d89b411461037f57610109565b806323b872dd116100dc57806323b872dd146101dc57806336a4b65f1461020557806342842e0e146102215780636352211e1461024a57806370a082311461028757610109565b806301ffc9a71461010e57806306fdde031461014b578063081812fc14610176578063095ea7b3146101b3575b600080fd5b34801561011a57600080fd5b506101356004803603810190610130919061235b565b6104b3565b60405161014291906123a3565b60405180910390f35b34801561015757600080fd5b50610160610595565b60405161016d9190612457565b60405180910390f35b34801561018257600080fd5b5061019d600480360381019061019891906124af565b610627565b6040516101aa919061251d565b60405180910390f35b3480156101bf57600080fd5b506101da60048036038101906101d59190612564565b6106ac565b005b3480156101e857600080fd5b5061020360048036038101906101fe91906125a4565b6107c3565b005b61021f600480360381019061021a9190612635565b610823565b005b34801561022d57600080fd5b50610248600480360381019061024391906125a4565b610966565b005b34801561025657600080fd5b50610271600480360381019061026c91906124af565b610986565b60405161027e919061251d565b60405180910390f35b34801561029357600080fd5b506102ae60048036038101906102a99190612688565b610a37565b6040516102bb91906126c4565b60405180910390f35b3480156102d057600080fd5b506102eb60048036038101906102e691906124af565b610aee565b6040516102fc9594939291906126df565b60405180910390f35b34801561031157600080fd5b5061032c60048036038101906103279190612688565b610d44565b60405161033991906128f4565b60405180910390f35b34801561034e57600080fd5b5061036960048036038101906103649190612b51565b6110a6565b60405161037691906126c4565b60405180910390f35b34801561038b57600080fd5b506103946111e6565b6040516103a19190612457565b60405180910390f35b3480156103b657600080fd5b506103d160048036038101906103cc9190612bd9565b611278565b005b3480156103df57600080fd5b506103fa60048036038101906103f59190612cba565b61128e565b005b34801561040857600080fd5b50610423600480360381019061041e9190612564565b6112f0565b60405161043091906126c4565b60405180910390f35b34801561044557600080fd5b50610460600480360381019061045b91906124af565b611321565b60405161046d9190612457565b60405180910390f35b34801561048257600080fd5b5061049d60048036038101906104989190612d3d565b611472565b6040516104aa91906123a3565b60405180910390f35b60007f80ac58cd000000000000000000000000000000000000000000000000000000007bffffffffffffffffffffffffffffffffffffffffffffffffffffffff1916827bffffffffffffffffffffffffffffffffffffffffffffffffffffffff1916148061057e57507f5b5e139f000000000000000000000000000000000000000000000000000000007bffffffffffffffffffffffffffffffffffffffffffffffffffffffff1916827bffffffffffffffffffffffffffffffffffffffffffffffffffffffff1916145b8061058e575061058d82611506565b5b9050919050565b6060600080546105a490612dac565b80601f01602080910402602001604051908101604052809291908181526020018280546105d090612dac565b801561061d5780601f106105f25761010080835404028352916020019161061d565b820191906000526020600020905b81548152906001019060200180831161060057829003601f168201915b5050505050905090565b600061063282611570565b610671576040517f08c379a000000000000000000000000000000000000000000000000000000000815260040161066890612e4f565b60405180910390fd5b6004600083815260200190815260200160002060009054906101000a900473ffffffffffffffffffffffffffffffffffffffff169050919050565b60006106b782610986565b90508073ffffffffffffffffffffffffffffffffffffffff168373ffffffffffffffffffffffffffffffffffffffff1603610727576040517f08c379a000000000000000000000000000000000000000000000000000000000815260040161071e90612ee1565b60405180910390fd5b8073ffffffffffffffffffffffffffffffffffffffff166107466115dc565b73ffffffffffffffffffffffffffffffffffffffff16148061077557506107748161076f6115dc565b611472565b5b6107b4576040517f08c379a00000000000000000000000000000000000000000000000000000000081526004016107ab90612f73565b60405180910390fd5b6107be83836115e4565b505050565b6107d46107ce6115dc565b8261169d565b610813576040517f08c379a000000000000000000000000000000000000000000000000000000000815260040161080a90613005565b60405180910390fd5b61081e83838361177b565b505050565b8061082d81610986565b73ffffffffffffffffffffffffffffffffffffffff1661084b6115dc565b73ffffffffffffffffffffffffffffffffffffffff161461086b57600080fd5b6000610876836119e1565b9050808411156108bb576040517f08c379a00000000000000000000000000000000000000000000000000000000081526004016108b290613097565b60405180910390fd5b4260096000858152602001908152602001600020600401819055508473ffffffffffffffffffffffffffffffffffffffff166108fc859081150290604051600060405180830381858888f1935050505015801561091c573d6000803e3d6000fd5b507f573e27af4e76c4be3fd6d46ed1774dfc446175c70a03d0a621f9435b0115a83e6109466115dc565b868660405161095793929190613116565b60405180910390a15050505050565b6109818383836040518060200160405280600081525061128e565b505050565b6000806002600084815260200190815260200160002060009054906101000a900473ffffffffffffffffffffffffffffffffffffffff169050600073ffffffffffffffffffffffffffffffffffffffff168173ffffffffffffffffffffffffffffffffffffffff1603610a2e576040517f08c379a0000000000000000000000000000000000000000000000000000000008152600401610a25906131bf565b60405180910390fd5b80915050919050565b60008073ffffffffffffffffffffffffffffffffffffffff168273ffffffffffffffffffffffffffffffffffffffff1603610aa7576040517f08c379a0000000000000000000000000000000000000000000000000000000008152600401610a9e90613251565b60405180910390fd5b600360008373ffffffffffffffffffffffffffffffffffffffff1673ffffffffffffffffffffffffffffffffffffffff168152602001908152602001600020549050919050565b6009602052806000526040600020600091509050806000018054610b1190612dac565b80601f0160208091040260200160405190810160405280929190818152602001828054610b3d90612dac565b8015610b8a5780601f10610b5f57610100808354040283529160200191610b8a565b820191906000526020600020905b815481529060010190602001808311610b6d57829003601f168201915b505050505090806001018054610b9f90612dac565b80601f0160208091040260200160405190810160405280929190818152602001828054610bcb90612dac565b8015610c185780601f10610bed57610100808354040283529160200191610c18565b820191906000526020600020905b815481529060010190602001808311610bfb57829003601f168201915b505050505090806002018054610c2d90612dac565b80601f0160208091040260200160405190810160405280929190818152602001828054610c5990612dac565b8015610ca65780601f10610c7b57610100808354040283529160200191610ca6565b820191906000526020600020905b815481529060010190602001808311610c8957829003601f168201915b505050505090806003018054610cbb90612dac565b80601f0160208091040260200160405190810160405280929190818152602001828054610ce790612dac565b8015610d345780601f10610d0957610100808354040283529160200191610d34565b820191906000526020600020905b815481529060010190602001808311610d1757829003601f168201915b5050505050908060040154905085565b60606000600860008473ffffffffffffffffffffffffffffffffffffffff1673ffffffffffffffffffffffffffffffffffffffff168152602001908152602001600020805480602002602001604051908101604052809291908181526020018280548015610dd157602002820191906000526020600020905b815481526020019060010190808311610dbd575b5050505050905060005b815181101561109f5760096000838381518110610dfb57610dfa613271565b5b602002602001015181526020019081526020016000206040518060a0016040529081600082018054610e2c90612dac565b80601f0160208091040260200160405190810160405280929190818152602001828054610e5890612dac565b8015610ea55780601f10610e7a57610100808354040283529160200191610ea5565b820191906000526020600020905b815481529060010190602001808311610e8857829003601f168201915b50505050508152602001600182018054610ebe90612dac565b80601f0160208091040260200160405190810160405280929190818152602001828054610eea90612dac565b8015610f375780601f10610f0c57610100808354040283529160200191610f37565b820191906000526020600020905b815481529060010190602001808311610f1a57829003601f168201915b50505050508152602001600282018054610f5090612dac565b80601f0160208091040260200160405190810160405280929190818152602001828054610f7c90612dac565b8015610fc95780601f10610f9e57610100808354040283529160200191610fc9565b820191906000526020600020905b815481529060010190602001808311610fac57829003601f168201915b50505050508152602001600382018054610fe290612dac565b80601f016020809104026020016040519081016040528092919081815260200182805461100e90612dac565b801561105b5780601f106110305761010080835404028352916020019161105b565b820191906000526020600020905b81548152906001019060200180831161103e57829003601f168201915b5050505050815260200160048201548152505083828151811061108157611080613271565b5b60200260200101819052508080611097906132cf565b915050610ddb565b5050919050565b6000806110b36007611a41565b90506110bf8482611a4f565b6110cd818460000151611c28565b600860008573ffffffffffffffffffffffffffffffffffffffff1673ffffffffffffffffffffffffffffffffffffffff168152602001908152602001600020819080600181540180825580915050600190039060005260206000200160009091909190915055428360800181815250508260096000838152602001908152602001600020600082015181600001908051906020019061116d92919061224c565b50602082015181600101908051906020019061118a92919061224c565b5060408201518160020190805190602001906111a792919061224c565b5060608201518160030190805190602001906111c492919061224c565b50608082015181600401559050506111dc6007611c9c565b8091505092915050565b6060600180546111f590612dac565b80601f016020809104026020016040519081016040528092919081815260200182805461122190612dac565b801561126e5780601f106112435761010080835404028352916020019161126e565b820191906000526020600020905b81548152906001019060200180831161125157829003601f168201915b5050505050905090565b61128a6112836115dc565b8383611cb2565b5050565b61129f6112996115dc565b8361169d565b6112de576040517f08c379a00000000000000000000000000000000000000000000000000000000081526004016112d590613005565b60405180910390fd5b6112ea84848484611e1e565b50505050565b6008602052816000526040600020818154811061130c57600080fd5b90600052602060002001600091509150505481565b606061132c82611570565b61136b576040517f08c379a000000000000000000000000000000000000000000000000000000000815260040161136290613389565b60405180910390fd5b600060066000848152602001908152602001600020805461138b90612dac565b80601f01602080910402602001604051908101604052809291908181526020018280546113b790612dac565b80156114045780601f106113d957610100808354040283529160200191611404565b820191906000526020600020905b8154815290600101906020018083116113e757829003601f168201915b505050505090506000611415611e7a565b9050600081510361142a57819250505061146d565b60008251111561145f5780826040516020016114479291906133e5565b6040516020818303038152906040529250505061146d565b61146884611e91565b925050505b919050565b6000600560008473ffffffffffffffffffffffffffffffffffffffff1673ffffffffffffffffffffffffffffffffffffffff16815260200190815260200160002060008373ffffffffffffffffffffffffffffffffffffffff1673ffffffffffffffffffffffffffffffffffffffff16815260200190815260200160002060009054906101000a900460ff16905092915050565b60007f01ffc9a7000000000000000000000000000000000000000000000000000000007bffffffffffffffffffffffffffffffffffffffffffffffffffffffff1916827bffffffffffffffffffffffffffffffffffffffffffffffffffffffff1916149050919050565b60008073ffffffffffffffffffffffffffffffffffffffff166002600084815260200190815260200160002060009054906101000a900473ffffffffffffffffffffffffffffffffffffffff1673ffffffffffffffffffffffffffffffffffffffff1614159050919050565b600033905090565b816004600083815260200190815260200160002060006101000a81548173ffffffffffffffffffffffffffffffffffffffff021916908373ffffffffffffffffffffffffffffffffffffffff160217905550808273ffffffffffffffffffffffffffffffffffffffff1661165783610986565b73ffffffffffffffffffffffffffffffffffffffff167f8c5be1e5ebec7d5bd14f71427d1e84f3dd0314c0f7b2291e5b200ac8c7c3b92560405160405180910390a45050565b60006116a882611570565b6116e7576040517f08c379a00000000000000000000000000000000000000000000000000000000081526004016116de9061347b565b60405180910390fd5b60006116f283610986565b90508073ffffffffffffffffffffffffffffffffffffffff168473ffffffffffffffffffffffffffffffffffffffff16148061173457506117338185611472565b5b8061177257508373ffffffffffffffffffffffffffffffffffffffff1661175a84610627565b73ffffffffffffffffffffffffffffffffffffffff16145b91505092915050565b8273ffffffffffffffffffffffffffffffffffffffff1661179b82610986565b73ffffffffffffffffffffffffffffffffffffffff16146117f1576040517f08c379a00000000000000000000000000000000000000000000000000000000081526004016117e89061350d565b60405180910390fd5b600073ffffffffffffffffffffffffffffffffffffffff168273ffffffffffffffffffffffffffffffffffffffff1603611860576040517f08c379a00000000000000000000000000000000000000000000000000000000081526004016118579061359f565b60405180910390fd5b61186b838383611f38565b6118766000826115e4565b6001600360008573ffffffffffffffffffffffffffffffffffffffff1673ffffffffffffffffffffffffffffffffffffffff16815260200190815260200160002060008282546118c691906135bf565b925050819055506001600360008473ffffffffffffffffffffffffffffffffffffffff1673ffffffffffffffffffffffffffffffffffffffff168152602001908152602001600020600082825461191d91906135f3565b92505081905550816002600083815260200190815260200160002060006101000a81548173ffffffffffffffffffffffffffffffffffffffff021916908373ffffffffffffffffffffffffffffffffffffffff160217905550808273ffffffffffffffffffffffffffffffffffffffff168473ffffffffffffffffffffffffffffffffffffffff167fddf252ad1be2c89b69c2b068fc378daa952ba7f163c4a11628f55a4df523b3ef60405160405180910390a46119dc838383611f3d565b505050565b6000806009600084815260200190815260200160002060040154905060006018603c8342611a0f91906135bf565b611a199190613678565b611a239190613678565b9050662386f26fc1000081611a3891906136a9565b92505050919050565b600081600001549050919050565b600073ffffffffffffffffffffffffffffffffffffffff168273ffffffffffffffffffffffffffffffffffffffff1603611abe576040517f08c379a0000000000000000000000000000000000000000000000000000000008152600401611ab59061374f565b60405180910390fd5b611ac781611570565b15611b07576040517f08c379a0000000000000000000000000000000000000000000000000000000008152600401611afe906137bb565b60405180910390fd5b611b1360008383611f38565b6001600360008473ffffffffffffffffffffffffffffffffffffffff1673ffffffffffffffffffffffffffffffffffffffff1681526020019081526020016000206000828254611b6391906135f3565b92505081905550816002600083815260200190815260200160002060006101000a81548173ffffffffffffffffffffffffffffffffffffffff021916908373ffffffffffffffffffffffffffffffffffffffff160217905550808273ffffffffffffffffffffffffffffffffffffffff16600073ffffffffffffffffffffffffffffffffffffffff167fddf252ad1be2c89b69c2b068fc378daa952ba7f163c4a11628f55a4df523b3ef60405160405180910390a4611c2460008383611f3d565b5050565b611c3182611570565b611c70576040517f08c379a0000000000000000000000000000000000000000000000000000000008152600401611c679061384d565b60405180910390fd5b80600660008481526020019081526020016000209080519060200190611c9792919061224c565b505050565b6001816000016000828254019250508190555050565b8173ffffffffffffffffffffffffffffffffffffffff168373ffffffffffffffffffffffffffffffffffffffff1603611d20576040517f08c379a0000000000000000000000000000000000000000000000000000000008152600401611d17906138b9565b60405180910390fd5b80600560008573ffffffffffffffffffffffffffffffffffffffff1673ffffffffffffffffffffffffffffffffffffffff16815260200190815260200160002060008473ffffffffffffffffffffffffffffffffffffffff1673ffffffffffffffffffffffffffffffffffffffff16815260200190815260200160002060006101000a81548160ff0219169083151502179055508173ffffffffffffffffffffffffffffffffffffffff168373ffffffffffffffffffffffffffffffffffffffff167f17307eab39ab6107e8899845ad3d59bd9653f200f220920489ca2b5937696c3183604051611e1191906123a3565b60405180910390a3505050565b611e2984848461177b565b611e3584848484611f42565b611e74576040517f08c379a0000000000000000000000000000000000000000000000000000000008152600401611e6b9061394b565b60405180910390fd5b50505050565b606060405180602001604052806000815250905090565b6060611e9c82611570565b611edb576040517f08c379a0000000000000000000000000000000000000000000000000000000008152600401611ed2906139dd565b60405180910390fd5b6000611ee5611e7a565b90506000815111611f055760405180602001604052806000815250611f30565b80611f0f846120c9565b604051602001611f209291906133e5565b6040516020818303038152906040525b915050919050565b505050565b505050565b6000611f638473ffffffffffffffffffffffffffffffffffffffff16612229565b156120bc578373ffffffffffffffffffffffffffffffffffffffff1663150b7a02611f8c6115dc565b8786866040518563ffffffff1660e01b8152600401611fae9493929190613a52565b6020604051808303816000875af1925050508015611fea57506040513d601f19601f82011682018060405250810190611fe79190613ab3565b60015b61206c573d806000811461201a576040519150601f19603f3d011682016040523d82523d6000602084013e61201f565b606091505b506000815103612064576040517f08c379a000000000000000000000000000000000000000000000000000000000815260040161205b9061394b565b60405180910390fd5b805181602001fd5b63150b7a0260e01b7bffffffffffffffffffffffffffffffffffffffffffffffffffffffff1916817bffffffffffffffffffffffffffffffffffffffffffffffffffffffff1916149150506120c1565b600190505b949350505050565b606060008203612110576040518060400160405280600181526020017f30000000000000000000000000000000000000000000000000000000000000008152509050612224565b600082905060005b6000821461214257808061212b906132cf565b915050600a8261213b9190613678565b9150612118565b60008167ffffffffffffffff81111561215e5761215d61291b565b5b6040519080825280601f01601f1916602001820160405280156121905781602001600182028036833780820191505090505b5090505b6000851461221d576001826121a991906135bf565b9150600a856121b89190613ae0565b60306121c491906135f3565b60f81b8183815181106121da576121d9613271565b5b60200101907effffffffffffffffffffffffffffffffffffffffffffffffffffffffffffff1916908160001a905350600a856122169190613678565b9450612194565b8093505050505b919050565b6000808273ffffffffffffffffffffffffffffffffffffffff163b119050919050565b82805461225890612dac565b90600052602060002090601f01602090048101928261227a57600085556122c1565b82601f1061229357805160ff19168380011785556122c1565b828001600101855582156122c1579182015b828111156122c05782518255916020019190600101906122a5565b5b5090506122ce91906122d2565b5090565b5b808211156122eb5760008160009055506001016122d3565b5090565b6000604051905090565b600080fd5b600080fd5b60007fffffffff0000000000000000000000000000000000000000000000000000000082169050919050565b61233881612303565b811461234357600080fd5b50565b6000813590506123558161232f565b92915050565b600060208284031215612371576123706122f9565b5b600061237f84828501612346565b91505092915050565b60008115159050919050565b61239d81612388565b82525050565b60006020820190506123b86000830184612394565b92915050565b600081519050919050565b600082825260208201905092915050565b60005b838110156123f85780820151818401526020810190506123dd565b83811115612407576000848401525b50505050565b6000601f19601f8301169050919050565b6000612429826123be565b61243381856123c9565b93506124438185602086016123da565b61244c8161240d565b840191505092915050565b60006020820190508181036000830152612471818461241e565b905092915050565b6000819050919050565b61248c81612479565b811461249757600080fd5b50565b6000813590506124a981612483565b92915050565b6000602082840312156124c5576124c46122f9565b5b60006124d38482850161249a565b91505092915050565b600073ffffffffffffffffffffffffffffffffffffffff82169050919050565b6000612507826124dc565b9050919050565b612517816124fc565b82525050565b6000602082019050612532600083018461250e565b92915050565b612541816124fc565b811461254c57600080fd5b50565b60008135905061255e81612538565b92915050565b6000806040838503121561257b5761257a6122f9565b5b60006125898582860161254f565b925050602061259a8582860161249a565b9150509250929050565b6000806000606084860312156125bd576125bc6122f9565b5b60006125cb8682870161254f565b93505060206125dc8682870161254f565b92505060406125ed8682870161249a565b9150509250925092565b6000612602826124dc565b9050919050565b612612816125f7565b811461261d57600080fd5b50565b60008135905061262f81612609565b92915050565b60008060006060848603121561264e5761264d6122f9565b5b600061265c86828701612620565b935050602061266d8682870161249a565b925050604061267e8682870161249a565b9150509250925092565b60006020828403121561269e5761269d6122f9565b5b60006126ac8482850161254f565b91505092915050565b6126be81612479565b82525050565b60006020820190506126d960008301846126b5565b92915050565b600060a08201905081810360008301526126f9818861241e565b9050818103602083015261270d818761241e565b90508181036040830152612721818661241e565b90508181036060830152612735818561241e565b905061274460808301846126b5565b9695505050505050565b600081519050919050565b600082825260208201905092915050565b6000819050602082019050919050565b600082825260208201905092915050565b6000612796826123be565b6127a0818561277a565b93506127b08185602086016123da565b6127b98161240d565b840191505092915050565b6127cd81612479565b82525050565b600060a08301600083015184820360008601526127f0828261278b565b9150506020830151848203602086015261280a828261278b565b91505060408301518482036040860152612824828261278b565b9150506060830151848203606086015261283e828261278b565b915050608083015161285360808601826127c4565b508091505092915050565b600061286a83836127d3565b905092915050565b6000602082019050919050565b600061288a8261274e565b6128948185612759565b9350836020820285016128a68561276a565b8060005b858110156128e257848403895281516128c3858261285e565b94506128ce83612872565b925060208a019950506001810190506128aa565b50829750879550505050505092915050565b6000602082019050818103600083015261290e818461287f565b905092915050565b600080fd5b7f4e487b7100000000000000000000000000000000000000000000000000000000600052604160045260246000fd5b6129538261240d565b810181811067ffffffffffffffff821117156129725761297161291b565b5b80604052505050565b60006129856122ef565b9050612991828261294a565b919050565b600080fd5b600080fd5b600080fd5b600067ffffffffffffffff8211156129c0576129bf61291b565b5b6129c98261240d565b9050602081019050919050565b82818337600083830152505050565b60006129f86129f3846129a5565b61297b565b905082815260208101848484011115612a1457612a136129a0565b5b612a1f8482856129d6565b509392505050565b600082601f830112612a3c57612a3b61299b565b5b8135612a4c8482602086016129e5565b91505092915050565b600060a08284031215612a6b57612a6a612916565b5b612a7560a061297b565b9050600082013567ffffffffffffffff811115612a9557612a94612996565b5b612aa184828501612a27565b600083015250602082013567ffffffffffffffff811115612ac557612ac4612996565b5b612ad184828501612a27565b602083015250604082013567ffffffffffffffff811115612af557612af4612996565b5b612b0184828501612a27565b604083015250606082013567ffffffffffffffff811115612b2557612b24612996565b5b612b3184828501612a27565b6060830152506080612b458482850161249a565b60808301525092915050565b60008060408385031215612b6857612b676122f9565b5b6000612b768582860161254f565b925050602083013567ffffffffffffffff811115612b9757612b966122fe565b5b612ba385828601612a55565b9150509250929050565b612bb681612388565b8114612bc157600080fd5b50565b600081359050612bd381612bad565b92915050565b60008060408385031215612bf057612bef6122f9565b5b6000612bfe8582860161254f565b9250506020612c0f85828601612bc4565b9150509250929050565b600067ffffffffffffffff821115612c3457612c3361291b565b5b612c3d8261240d565b9050602081019050919050565b6000612c5d612c5884612c19565b61297b565b905082815260208101848484011115612c7957612c786129a0565b5b612c848482856129d6565b509392505050565b600082601f830112612ca157612ca061299b565b5b8135612cb1848260208601612c4a565b91505092915050565b60008060008060808587031215612cd457612cd36122f9565b5b6000612ce28782880161254f565b9450506020612cf38782880161254f565b9350506040612d048782880161249a565b925050606085013567ffffffffffffffff811115612d2557612d246122fe565b5b612d3187828801612c8c565b91505092959194509250565b60008060408385031215612d5457612d536122f9565b5b6000612d628582860161254f565b9250506020612d738582860161254f565b9150509250929050565b7f4e487b7100000000000000000000000000000000000000000000000000000000600052602260045260246000fd5b60006002820490506001821680612dc457607f821691505b602082108103612dd757612dd6612d7d565b5b50919050565b7f4552433732313a20617070726f76656420717565727920666f72206e6f6e657860008201527f697374656e7420746f6b656e0000000000000000000000000000000000000000602082015250565b6000612e39602c836123c9565b9150612e4482612ddd565b604082019050919050565b60006020820190508181036000830152612e6881612e2c565b9050919050565b7f4552433732313a20617070726f76616c20746f2063757272656e74206f776e6560008201527f7200000000000000000000000000000000000000000000000000000000000000602082015250565b6000612ecb6021836123c9565b9150612ed682612e6f565b604082019050919050565b60006020820190508181036000830152612efa81612ebe565b9050919050565b7f4552433732313a20617070726f76652063616c6c6572206973206e6f74206f7760008201527f6e6572206e6f7220617070726f76656420666f7220616c6c0000000000000000602082015250565b6000612f5d6038836123c9565b9150612f6882612f01565b604082019050919050565b60006020820190508181036000830152612f8c81612f50565b9050919050565b7f4552433732313a207472616e736665722063616c6c6572206973206e6f74206f60008201527f776e6572206e6f7220617070726f766564000000000000000000000000000000602082015250565b6000612fef6031836123c9565b9150612ffa82612f93565b604082019050919050565b6000602082019050818103600083015261301e81612fe2565b9050919050565b7f576974686472617720616d6f756e742065786365656473206561726e6564207460008201527f6f6b656e7320636f756e74000000000000000000000000000000000000000000602082015250565b6000613081602b836123c9565b915061308c82613025565b604082019050919050565b600060208201905081810360008301526130b081613074565b9050919050565b6000819050919050565b60006130dc6130d76130d2846124dc565b6130b7565b6124dc565b9050919050565b60006130ee826130c1565b9050919050565b6000613100826130e3565b9050919050565b613110816130f5565b82525050565b600060608201905061312b600083018661250e565b6131386020830185613107565b61314560408301846126b5565b949350505050565b7f4552433732313a206f776e657220717565727920666f72206e6f6e657869737460008201527f656e7420746f6b656e0000000000000000000000000000000000000000000000602082015250565b60006131a96029836123c9565b91506131b48261314d565b604082019050919050565b600060208201905081810360008301526131d88161319c565b9050919050565b7f4552433732313a2062616c616e636520717565727920666f7220746865207a6560008201527f726f206164647265737300000000000000000000000000000000000000000000602082015250565b600061323b602a836123c9565b9150613246826131df565b604082019050919050565b6000602082019050818103600083015261326a8161322e565b9050919050565b7f4e487b7100000000000000000000000000000000000000000000000000000000600052603260045260246000fd5b7f4e487b7100000000000000000000000000000000000000000000000000000000600052601160045260246000fd5b60006132da82612479565b91507fffffffffffffffffffffffffffffffffffffffffffffffffffffffffffffffff820361330c5761330b6132a0565b5b600182019050919050565b7f45524337323155524953746f726167653a2055524920717565727920666f722060008201527f6e6f6e6578697374656e7420746f6b656e000000000000000000000000000000602082015250565b60006133736031836123c9565b915061337e82613317565b604082019050919050565b600060208201905081810360008301526133a281613366565b9050919050565b600081905092915050565b60006133bf826123be565b6133c981856133a9565b93506133d98185602086016123da565b80840191505092915050565b60006133f182856133b4565b91506133fd82846133b4565b91508190509392505050565b7f4552433732313a206f70657261746f7220717565727920666f72206e6f6e657860008201527f697374656e7420746f6b656e0000000000000000000000000000000000000000602082015250565b6000613465602c836123c9565b915061347082613409565b604082019050919050565b6000602082019050818103600083015261349481613458565b9050919050565b7f4552433732313a207472616e736665722066726f6d20696e636f72726563742060008201527f6f776e6572000000000000000000000000000000000000000000000000000000602082015250565b60006134f76025836123c9565b91506135028261349b565b604082019050919050565b60006020820190508181036000830152613526816134ea565b9050919050565b7f4552433732313a207472616e7366657220746f20746865207a65726f2061646460008201527f7265737300000000000000000000000000000000000000000000000000000000602082015250565b60006135896024836123c9565b91506135948261352d565b604082019050919050565b600060208201905081810360008301526135b88161357c565b9050919050565b60006135ca82612479565b91506135d583612479565b9250828210156135e8576135e76132a0565b5b828203905092915050565b60006135fe82612479565b915061360983612479565b9250827fffffffffffffffffffffffffffffffffffffffffffffffffffffffffffffffff0382111561363e5761363d6132a0565b5b828201905092915050565b7f4e487b7100000000000000000000000000000000000000000000000000000000600052601260045260246000fd5b600061368382612479565b915061368e83612479565b92508261369e5761369d613649565b5b828204905092915050565b60006136b482612479565b91506136bf83612479565b9250817fffffffffffffffffffffffffffffffffffffffffffffffffffffffffffffffff04831182151516156136f8576136f76132a0565b5b828202905092915050565b7f4552433732313a206d696e7420746f20746865207a65726f2061646472657373600082015250565b60006137396020836123c9565b915061374482613703565b602082019050919050565b600060208201905081810360008301526137688161372c565b9050919050565b7f4552433732313a20746f6b656e20616c7265616479206d696e74656400000000600082015250565b60006137a5601c836123c9565b91506137b08261376f565b602082019050919050565b600060208201905081810360008301526137d481613798565b9050919050565b7f45524337323155524953746f726167653a2055524920736574206f66206e6f6e60008201527f6578697374656e7420746f6b656e000000000000000000000000000000000000602082015250565b6000613837602e836123c9565b9150613842826137db565b604082019050919050565b600060208201905081810360008301526138668161382a565b9050919050565b7f4552433732313a20617070726f766520746f2063616c6c657200000000000000600082015250565b60006138a36019836123c9565b91506138ae8261386d565b602082019050919050565b600060208201905081810360008301526138d281613896565b9050919050565b7f4552433732313a207472616e7366657220746f206e6f6e20455243373231526560008201527f63656976657220696d706c656d656e7465720000000000000000000000000000602082015250565b60006139356032836123c9565b9150613940826138d9565b604082019050919050565b6000602082019050818103600083015261396481613928565b9050919050565b7f4552433732314d657461646174613a2055524920717565727920666f72206e6f60008201527f6e6578697374656e7420746f6b656e0000000000000000000000000000000000602082015250565b60006139c7602f836123c9565b91506139d28261396b565b604082019050919050565b600060208201905081810360008301526139f6816139ba565b9050919050565b600081519050919050565b600082825260208201905092915050565b6000613a24826139fd565b613a2e8185613a08565b9350613a3e8185602086016123da565b613a478161240d565b840191505092915050565b6000608082019050613a67600083018761250e565b613a74602083018661250e565b613a8160408301856126b5565b8181036060830152613a938184613a19565b905095945050505050565b600081519050613aad8161232f565b92915050565b600060208284031215613ac957613ac86122f9565b5b6000613ad784828501613a9e565b91505092915050565b6000613aeb82612479565b9150613af683612479565b925082613b0657613b05613649565b5b82820690509291505056fea2646970667358221220f944441fae24f3afa5ed62c76f8f539b065f418f250fd8580c174da15ce1ec6b64736f6c634300080e0033",
  "immutableReferences": {},
  "source": "// SPDX-License-Identifier: MIT\npragma solidity 0.8.14;\n\nimport \"@openzeppelin/contracts/token/ERC721/extensions/ERC721URIStorage.sol\";\nimport \"@openzeppelin/contracts/utils/Counters.sol\";\n\ncontract SpaceToken is ERC721URIStorage {\n    using Counters for Counters.Counter;\n    Counters.Counter private _tokenIds;\n\n    struct TokenDetails {\n        string url;\n        string description;\n        string iconHash;\n        string screenshotHash;\n        uint256 lastWithdrawDate;\n    }\n\n    event WithdrawAction(address owner, address to, uint256 amount);\n\n    modifier onlyTokenOwner(uint256 tokenId) {\n        require(_msgSender() == ownerOf(tokenId));\n        _;\n    }\n\n    // Map from tokenId to tokenData\n    mapping(address => uint256[]) public _userTokenIds;\n\n    // TokenId to it's details\n    mapping(uint256 => TokenDetails) public _tokenDetails;\n\n    // Map address to lastWithdrawDate\n    // mapping(address => uint256) public _penddingWithdraws;\n\n    constructor() ERC721(\"SpaceToken\", \"SPTK\") {}\n\n    // Create a token with siteUrl & Token Details\n    function mintToken(address owner, TokenDetails memory tokenDetails)\n        public\n        returns (uint256)\n    {\n        uint256 tokenId = _tokenIds.current();\n        _mint(owner, tokenId);\n        _setTokenURI(tokenId, tokenDetails.url);\n\n        _userTokenIds[owner].push(tokenId);\n\n        // Set lastWithdrawDate as init date\n        tokenDetails.lastWithdrawDate = block.timestamp;\n        _tokenDetails[tokenId] = tokenDetails;\n\n        _tokenIds.increment();\n\n        return tokenId;\n    }\n\n    /**\n     * @param owner An address of a user of which we want to get his tokens\n     */\n    function getTokenDetails(address owner)\n        public\n        view\n        returns (TokenDetails[] memory tokenDetails)\n    {\n        // Get all user tokenIds\n        uint256[] memory userTokenIds = _userTokenIds[owner];\n\n        // Loop through all tokenIds to get their details\n        for (uint256 i = 0; i < userTokenIds.length; i++) {\n            tokenDetails[i] = _tokenDetails[userTokenIds[i]];\n        }\n\n        return tokenDetails;\n    }\n\n    // Claim earned ETH\n    function withdrawEarnedTokens(\n        address payable to,\n        uint256 amount,\n        uint256 tokenId\n    ) external payable virtual onlyTokenOwner(tokenId) {\n        // Get amount of wei to send\n        uint256 earnedTokens = getEarnedTokens(tokenId);\n\n        require(\n            amount <= earnedTokens,\n            \"Withdraw amount exceeds earned tokens count\"\n        );\n\n        // Set wihtdraw date as NOW timestamp\n        _tokenDetails[tokenId].lastWithdrawDate = block.timestamp;\n\n        // Send earned tokens\n        to.transfer(amount);\n\n        emit WithdrawAction(_msgSender(), to, amount);\n    }\n\n    /**\n     * @return amount ,in wei\n     */\n    function getEarnedTokens(uint256 tokenId)\n        private\n        view\n        returns (uint256 amount)\n    {\n        uint256 lastWithdrawDate = _tokenDetails[tokenId].lastWithdrawDate;\n\n        // amonut = timepassed in seconds / 60 (to minutes) / 24 (to days)\n        uint256 daysPassed = (block.timestamp - lastWithdrawDate) / 60 / 24;\n\n        amount = daysPassed * 10**16;\n    }\n}\n",
  "sourcePath": "/mnt/data/Code/projects/Solidity/nft-erc721/contracts/SpaceToken.sol",
  "compiler": {
    "name": "solc",
    "version": "0.8.14+commit.80d49f37.Emscripten.clang"
  },
  "schemaVersion": "3.4.7",
  "updatedAt": "2022-06-16T21:58:38.003Z",
  "networkType": "ethereum",
  "devdoc": {
    "kind": "dev",
    "methods": {
      "approve(address,uint256)": {
        "details": "See {IERC721-approve}."
      },
      "balanceOf(address)": {
        "details": "See {IERC721-balanceOf}."
      },
      "getApproved(uint256)": {
        "details": "See {IERC721-getApproved}."
      },
      "getTokenDetails(address)": {
        "params": {
          "owner": "An address of a user of which we want to get his tokens"
        }
      },
      "isApprovedForAll(address,address)": {
        "details": "See {IERC721-isApprovedForAll}."
      },
      "name()": {
        "details": "See {IERC721Metadata-name}."
      },
      "ownerOf(uint256)": {
        "details": "See {IERC721-ownerOf}."
      },
      "safeTransferFrom(address,address,uint256)": {
        "details": "See {IERC721-safeTransferFrom}."
      },
      "safeTransferFrom(address,address,uint256,bytes)": {
        "details": "See {IERC721-safeTransferFrom}."
      },
      "setApprovalForAll(address,bool)": {
        "details": "See {IERC721-setApprovalForAll}."
      },
      "supportsInterface(bytes4)": {
        "details": "See {IERC165-supportsInterface}."
      },
      "symbol()": {
        "details": "See {IERC721Metadata-symbol}."
      },
      "tokenURI(uint256)": {
        "details": "See {IERC721Metadata-tokenURI}."
      },
      "transferFrom(address,address,uint256)": {
        "details": "See {IERC721-transferFrom}."
      }
    },
    "version": 1
  },
  "userdoc": {
    "kind": "user",
    "methods": {},
    "version": 1
  }
}